{
  "contractName": "Database",
  "abi": [
    {
      "inputs": [
        {
          "internalType": "uint256",
          "name": "",
          "type": "uint256"
        }
      ],
      "name": "datas",
      "outputs": [
        {
          "internalType": "uint256",
          "name": "id",
          "type": "uint256"
        },
        {
          "internalType": "string",
          "name": "name",
          "type": "string"
        },
        {
          "internalType": "string",
          "name": "account",
          "type": "string"
        },
        {
          "internalType": "string",
          "name": "password",
          "type": "string"
        },
        {
          "internalType": "string",
          "name": "note",
          "type": "string"
        },
        {
          "internalType": "uint256",
          "name": "timestamp",
          "type": "uint256"
        },
        {
          "internalType": "bool",
          "name": "isValid",
          "type": "bool"
        }
      ],
      "stateMutability": "view",
      "type": "function",
      "constant": true
    },
    {
      "inputs": [],
      "name": "nextId",
      "outputs": [
        {
          "internalType": "uint256",
          "name": "",
          "type": "uint256"
        }
      ],
      "stateMutability": "view",
      "type": "function",
      "constant": true
    },
    {
      "inputs": [
        {
          "internalType": "string",
          "name": "name",
          "type": "string"
        },
        {
          "internalType": "string",
          "name": "account",
          "type": "string"
        },
        {
          "internalType": "string",
          "name": "password",
          "type": "string"
        },
        {
          "internalType": "string",
          "name": "note",
          "type": "string"
        }
      ],
      "name": "create",
      "outputs": [],
      "stateMutability": "nonpayable",
      "type": "function"
    },
    {
      "inputs": [
        {
          "internalType": "uint256",
          "name": "id",
          "type": "uint256"
        }
      ],
      "name": "read",
      "outputs": [
        {
          "internalType": "uint256",
          "name": "",
          "type": "uint256"
        },
        {
          "internalType": "string",
          "name": "",
          "type": "string"
        },
        {
          "internalType": "string",
          "name": "",
          "type": "string"
        },
        {
          "internalType": "string",
          "name": "",
          "type": "string"
        },
        {
          "internalType": "string",
          "name": "",
          "type": "string"
        },
        {
          "internalType": "uint256",
          "name": "",
          "type": "uint256"
        },
        {
          "internalType": "bool",
          "name": "",
          "type": "bool"
        }
      ],
      "stateMutability": "view",
      "type": "function",
      "constant": true
    },
    {
      "inputs": [
        {
          "internalType": "uint256",
          "name": "id",
          "type": "uint256"
        },
        {
          "internalType": "string",
          "name": "name",
          "type": "string"
        },
        {
          "internalType": "string",
          "name": "account",
          "type": "string"
        },
        {
          "internalType": "string",
          "name": "password",
          "type": "string"
        },
        {
          "internalType": "string",
          "name": "note",
          "type": "string"
        },
        {
          "internalType": "bool",
          "name": "isValid",
          "type": "bool"
        }
      ],
      "name": "update",
      "outputs": [],
      "stateMutability": "nonpayable",
      "type": "function"
    },
    {
      "inputs": [
        {
          "internalType": "uint256",
          "name": "id",
          "type": "uint256"
        }
      ],
      "name": "deleteData",
      "outputs": [],
      "stateMutability": "nonpayable",
      "type": "function"
    }
  ],
  "bytecode": "0x60806040526001805534801561001457600080fd5b50611401806100246000396000f3fe608060405234801561001057600080fd5b50600436106100625760003560e01c806303476348146100675780634fe8b4c11461008357806361b8ce8c1461009f57806378ff6ee3146100bd578063c0a094fd146100d9578063ed2e5a971461010f575b600080fd5b610081600480360381019061007c9190610f0c565b610145565b005b61009d60048036038101906100989190611009565b6102aa565b005b6100a76104de565b6040516100b49190611045565b60405180910390f35b6100d760048036038101906100d29190611060565b6104e4565b005b6100f360048036038101906100ee9190611009565b61060f565b60405161010697969594939291906111ce565b60405180910390f35b61012960048036038101906101249190611009565b61088e565b60405161013c97969594939291906111ce565b60405180910390f35b600061015087610c03565b9050856000828154811061016757610166611259565b5b9060005260206000209060070201600101908051906020019061018b929190610ca1565b5084600082815481106101a1576101a0611259565b5b906000526020600020906007020160020190805190602001906101c5929190610ca1565b5083600082815481106101db576101da611259565b5b906000526020600020906007020160030190805190602001906101ff929190610ca1565b50826000828154811061021557610214611259565b5b90600052602060002090600702016004019080519060200190610239929190610ca1565b50426000828154811061024f5761024e611259565b5b906000526020600020906007020160050181905550816000828154811061027957610278611259565b5b906000526020600020906007020160060160006101000a81548160ff02191690831515021790555050505050505050565b60006102b582610c03565b90506040518060400160405280600181526020017f30000000000000000000000000000000000000000000000000000000000000008152506000828154811061030157610300611259565b5b90600052602060002090600702016001019080519060200190610325929190610ca1565b506040518060400160405280600181526020017f3000000000000000000000000000000000000000000000000000000000000000815250600082815481106103705761036f611259565b5b90600052602060002090600702016002019080519060200190610394929190610ca1565b506040518060400160405280600181526020017f3000000000000000000000000000000000000000000000000000000000000000815250600082815481106103df576103de611259565b5b90600052602060002090600702016003019080519060200190610403929190610ca1565b506040518060400160405280600181526020017f30000000000000000000000000000000000000000000000000000000000000008152506000828154811061044e5761044d611259565b5b90600052602060002090600702016004019080519060200190610472929190610ca1565b50426000828154811061048857610487611259565b5b90600052602060002090600702016005018190555060008082815481106104b2576104b1611259565b5b906000526020600020906007020160060160006101000a81548160ff0219169083151502179055505050565b60015481565b60006040518060e00160405280600154815260200186815260200185815260200184815260200183815260200142815260200160011515815250908060018154018082558091505060019003906000526020600020906007020160009091909190915060008201518160000155602082015181600101908051906020019061056d929190610ca1565b50604082015181600201908051906020019061058a929190610ca1565b5060608201518160030190805190602001906105a7929190610ca1565b5060808201518160040190805190602001906105c4929190610ca1565b5060a0820151816005015560c08201518160060160006101000a81548160ff021916908315150217905550505060016000815480929190610604906112b7565b919050555050505050565b6000818154811061061f57600080fd5b90600052602060002090600702016000915090508060000154908060010180546106489061132e565b80601f01602080910402602001604051908101604052809291908181526020018280546106749061132e565b80156106c15780601f10610696576101008083540402835291602001916106c1565b820191906000526020600020905b8154815290600101906020018083116106a457829003601f168201915b5050505050908060020180546106d69061132e565b80601f01602080910402602001604051908101604052809291908181526020018280546107029061132e565b801561074f5780601f106107245761010080835404028352916020019161074f565b820191906000526020600020905b81548152906001019060200180831161073257829003601f168201915b5050505050908060030180546107649061132e565b80601f01602080910402602001604051908101604052809291908181526020018280546107909061132e565b80156107dd5780601f106107b2576101008083540402835291602001916107dd565b820191906000526020600020905b8154815290600101906020018083116107c057829003601f168201915b5050505050908060040180546107f29061132e565b80601f016020809104026020016040519081016040528092919081815260200182805461081e9061132e565b801561086b5780601f106108405761010080835404028352916020019161086b565b820191906000526020600020905b81548152906001019060200180831161084e57829003601f168201915b5050505050908060050154908060060160009054906101000a900460ff16905087565b600060608060608060008060006108a489610c03565b9050600081815481106108ba576108b9611259565b5b906000526020600020906007020160000154600082815481106108e0576108df611259565b5b90600052602060002090600702016001016000838154811061090557610904611259565b5b90600052602060002090600702016002016000848154811061092a57610929611259565b5b90600052602060002090600702016003016000858154811061094f5761094e611259565b5b90600052602060002090600702016004016000868154811061097457610973611259565b5b9060005260206000209060070201600501546000878154811061099a57610999611259565b5b906000526020600020906007020160060160009054906101000a900460ff168580546109c59061132e565b80601f01602080910402602001604051908101604052809291908181526020018280546109f19061132e565b8015610a3e5780601f10610a1357610100808354040283529160200191610a3e565b820191906000526020600020905b815481529060010190602001808311610a2157829003601f168201915b50505050509550848054610a519061132e565b80601f0160208091040260200160405190810160405280929190818152602001828054610a7d9061132e565b8015610aca5780601f10610a9f57610100808354040283529160200191610aca565b820191906000526020600020905b815481529060010190602001808311610aad57829003601f168201915b50505050509450838054610add9061132e565b80601f0160208091040260200160405190810160405280929190818152602001828054610b099061132e565b8015610b565780601f10610b2b57610100808354040283529160200191610b56565b820191906000526020600020905b815481529060010190602001808311610b3957829003601f168201915b50505050509350828054610b699061132e565b80601f0160208091040260200160405190810160405280929190818152602001828054610b959061132e565b8015610be25780601f10610bb757610100808354040283529160200191610be2565b820191906000526020600020905b815481529060010190602001808311610bc557829003601f168201915b50505050509250975097509750975097509750975050919395979092949650565b600080600090505b600080549050811015610c60578260008281548110610c2d57610c2c611259565b5b90600052602060002090600702016000015403610c4d5780915050610c9c565b8080610c58906112b7565b915050610c0b565b506040517f08c379a0000000000000000000000000000000000000000000000000000000008152600401610c93906113ab565b60405180910390fd5b919050565b828054610cad9061132e565b90600052602060002090601f016020900481019282610ccf5760008555610d16565b82601f10610ce857805160ff1916838001178555610d16565b82800160010185558215610d16579182015b82811115610d15578251825591602001919060010190610cfa565b5b509050610d239190610d27565b5090565b5b80821115610d40576000816000905550600101610d28565b5090565b6000604051905090565b600080fd5b600080fd5b6000819050919050565b610d6b81610d58565b8114610d7657600080fd5b50565b600081359050610d8881610d62565b92915050565b600080fd5b600080fd5b6000601f19601f8301169050919050565b7f4e487b7100000000000000000000000000000000000000000000000000000000600052604160045260246000fd5b610de182610d98565b810181811067ffffffffffffffff82111715610e0057610dff610da9565b5b80604052505050565b6000610e13610d44565b9050610e1f8282610dd8565b919050565b600067ffffffffffffffff821115610e3f57610e3e610da9565b5b610e4882610d98565b9050602081019050919050565b82818337600083830152505050565b6000610e77610e7284610e24565b610e09565b905082815260208101848484011115610e9357610e92610d93565b5b610e9e848285610e55565b509392505050565b600082601f830112610ebb57610eba610d8e565b5b8135610ecb848260208601610e64565b91505092915050565b60008115159050919050565b610ee981610ed4565b8114610ef457600080fd5b50565b600081359050610f0681610ee0565b92915050565b60008060008060008060c08789031215610f2957610f28610d4e565b5b6000610f3789828a01610d79565b965050602087013567ffffffffffffffff811115610f5857610f57610d53565b5b610f6489828a01610ea6565b955050604087013567ffffffffffffffff811115610f8557610f84610d53565b5b610f9189828a01610ea6565b945050606087013567ffffffffffffffff811115610fb257610fb1610d53565b5b610fbe89828a01610ea6565b935050608087013567ffffffffffffffff811115610fdf57610fde610d53565b5b610feb89828a01610ea6565b92505060a0610ffc89828a01610ef7565b9150509295509295509295565b60006020828403121561101f5761101e610d4e565b5b600061102d84828501610d79565b91505092915050565b61103f81610d58565b82525050565b600060208201905061105a6000830184611036565b92915050565b6000806000806080858703121561107a57611079610d4e565b5b600085013567ffffffffffffffff81111561109857611097610d53565b5b6110a487828801610ea6565b945050602085013567ffffffffffffffff8111156110c5576110c4610d53565b5b6110d187828801610ea6565b935050604085013567ffffffffffffffff8111156110f2576110f1610d53565b5b6110fe87828801610ea6565b925050606085013567ffffffffffffffff81111561111f5761111e610d53565b5b61112b87828801610ea6565b91505092959194509250565b600081519050919050565b600082825260208201905092915050565b60005b83811015611171578082015181840152602081019050611156565b83811115611180576000848401525b50505050565b600061119182611137565b61119b8185611142565b93506111ab818560208601611153565b6111b481610d98565b840191505092915050565b6111c881610ed4565b82525050565b600060e0820190506111e3600083018a611036565b81810360208301526111f58189611186565b905081810360408301526112098188611186565b9050818103606083015261121d8187611186565b905081810360808301526112318186611186565b905061124060a0830185611036565b61124d60c08301846111bf565b98975050505050505050565b7f4e487b7100000000000000000000000000000000000000000000000000000000600052603260045260246000fd5b7f4e487b7100000000000000000000000000000000000000000000000000000000600052601160045260246000fd5b60006112c282610d58565b91507fffffffffffffffffffffffffffffffffffffffffffffffffffffffffffffffff82036112f4576112f3611288565b5b600182019050919050565b7f4e487b7100000000000000000000000000000000000000000000000000000000600052602260045260246000fd5b6000600282049050600182168061134657607f821691505b602082108103611359576113586112ff565b5b50919050565b7f44617461206e6f7420666f756e642e0000000000000000000000000000000000600082015250565b6000611395600f83611142565b91506113a08261135f565b602082019050919050565b600060208201905081810360008301526113c481611388565b905091905056fea2646970667358221220b8f8c5994c19b937e9320ac8d273e4be2ff0c7b74400cce292747802e2039b3564736f6c634300080d0033",
  "immutableReferences": {},
  "source": "// SPDX-License-Identifier: MIT\npragma solidity ^0.8.0;\n\ncontract Database {\n    struct Data {\n        uint id; // \n\t\tstring name;\n        string account; // \n        string password; // \n        string note; // \n        uint timestamp; // \n        bool isValid; // \n    }\n\n    Data[] public datas;\n    uint public nextId = 1;\n\n    // \n    function create(string memory name, string memory account, string memory password, string memory note) public {\n        datas.push(Data(nextId, name, account, password, note, block.timestamp, true));\n        nextId++;\n    }\n\n    // \n    function find(uint id) internal view returns(uint) {\n        for(uint i = 0; i < datas.length; i++) {\n            if(datas[i].id == id) {\n                return i;\n            }\n        }\n        revert('Data not found.');\n    }\n\n    // \n    function read(uint id) public view returns(uint, string memory, string memory, string memory, string memory, uint, bool) {\n        uint i = find(id);\n        return(datas[i].id, datas[i].name, datas[i].account, datas[i].password, datas[i].note, datas[i].timestamp , datas[i].isValid);\n    }\n\n    // \n    function update(uint id, string memory name, string memory account, string memory password, string memory note, bool isValid) public {\n        uint i = find(id);\n        datas[i].name = name;\n        datas[i].account = account;\n        datas[i].password = password;\n        datas[i].note = note;\n        datas[i].timestamp = block.timestamp;\n        datas[i].isValid = isValid;\n    }\n\n    // \n    function deleteData(uint id) public {\n        uint i = find(id);\n        datas[i].name = \"0\";\n        datas[i].account = \"0\";\n        datas[i].password = \"0\";\n        datas[i].note = \"0\";\n        datas[i].timestamp = block.timestamp;\n        datas[i].isValid = false;\n    }\n}",
  "sourcePath": "/home/xiaoming/proj/bachelor-dissertation-code-contract/contracts/contract.sol",
  "compiler": {
    "name": "solc",
    "version": "0.8.13+commit.abaa5c0e.Emscripten.clang"
  },
  "schemaVersion": "3.4.16",
  "updatedAt": "2024-03-22T16:50:55.547Z",
  "networkType": "ethereum",
  "devdoc": {
    "kind": "dev",
    "methods": {},
    "version": 1
  },
  "userdoc": {
    "kind": "user",
    "methods": {},
    "version": 1
  }
}