{
  "contractName": "SimpleStorage",
  "abi": [
    {
      "inputs": [
        {
          "internalType": "uint256",
          "name": "",
          "type": "uint256"
        }
      ],
      "name": "data1",
      "outputs": [
        {
          "internalType": "string",
          "name": "",
          "type": "string"
        }
      ],
      "stateMutability": "view",
      "type": "function",
      "constant": true
    },
    {
      "inputs": [],
      "name": "data1Count",
      "outputs": [
        {
          "internalType": "uint256",
          "name": "",
          "type": "uint256"
        }
      ],
      "stateMutability": "view",
      "type": "function",
      "constant": true
    },
    {
      "inputs": [
        {
          "internalType": "uint256",
          "name": "",
          "type": "uint256"
        }
      ],
      "name": "data2",
      "outputs": [
        {
          "internalType": "string",
          "name": "",
          "type": "string"
        }
      ],
      "stateMutability": "view",
      "type": "function",
      "constant": true
    },
    {
      "inputs": [],
      "name": "data2Count",
      "outputs": [
        {
          "internalType": "uint256",
          "name": "",
          "type": "uint256"
        }
      ],
      "stateMutability": "view",
      "type": "function",
      "constant": true
    },
    {
      "inputs": [
        {
          "internalType": "uint256",
          "name": "",
          "type": "uint256"
        }
      ],
      "name": "data3",
      "outputs": [
        {
          "internalType": "string",
          "name": "",
          "type": "string"
        }
      ],
      "stateMutability": "view",
      "type": "function",
      "constant": true
    },
    {
      "inputs": [],
      "name": "data3Count",
      "outputs": [
        {
          "internalType": "uint256",
          "name": "",
          "type": "uint256"
        }
      ],
      "stateMutability": "view",
      "type": "function",
      "constant": true
    },
    {
      "inputs": [
        {
          "internalType": "uint256",
          "name": "",
          "type": "uint256"
        }
      ],
      "name": "data4",
      "outputs": [
        {
          "internalType": "string",
          "name": "",
          "type": "string"
        }
      ],
      "stateMutability": "view",
      "type": "function",
      "constant": true
    },
    {
      "inputs": [],
      "name": "data4Count",
      "outputs": [
        {
          "internalType": "uint256",
          "name": "",
          "type": "uint256"
        }
      ],
      "stateMutability": "view",
      "type": "function",
      "constant": true
    },
    {
      "inputs": [],
      "name": "total",
      "outputs": [
        {
          "internalType": "uint256",
          "name": "",
          "type": "uint256"
        }
      ],
      "stateMutability": "view",
      "type": "function",
      "constant": true
    },
    {
      "inputs": [
        {
          "internalType": "string",
          "name": "_data",
          "type": "string"
        }
      ],
      "name": "set1",
      "outputs": [],
      "stateMutability": "nonpayable",
      "type": "function"
    },
    {
      "inputs": [
        {
          "internalType": "uint256",
          "name": "index",
          "type": "uint256"
        }
      ],
      "name": "get1",
      "outputs": [
        {
          "internalType": "string",
          "name": "",
          "type": "string"
        }
      ],
      "stateMutability": "view",
      "type": "function",
      "constant": true
    },
    {
      "inputs": [
        {
          "internalType": "string",
          "name": "_data",
          "type": "string"
        }
      ],
      "name": "set2",
      "outputs": [],
      "stateMutability": "nonpayable",
      "type": "function"
    },
    {
      "inputs": [
        {
          "internalType": "uint256",
          "name": "index",
          "type": "uint256"
        }
      ],
      "name": "get2",
      "outputs": [
        {
          "internalType": "string",
          "name": "",
          "type": "string"
        }
      ],
      "stateMutability": "view",
      "type": "function",
      "constant": true
    },
    {
      "inputs": [
        {
          "internalType": "string",
          "name": "_data",
          "type": "string"
        }
      ],
      "name": "set3",
      "outputs": [],
      "stateMutability": "nonpayable",
      "type": "function"
    },
    {
      "inputs": [
        {
          "internalType": "uint256",
          "name": "index",
          "type": "uint256"
        }
      ],
      "name": "get3",
      "outputs": [
        {
          "internalType": "string",
          "name": "",
          "type": "string"
        }
      ],
      "stateMutability": "view",
      "type": "function",
      "constant": true
    },
    {
      "inputs": [
        {
          "internalType": "string",
          "name": "_data",
          "type": "string"
        }
      ],
      "name": "set4",
      "outputs": [],
      "stateMutability": "nonpayable",
      "type": "function"
    },
    {
      "inputs": [
        {
          "internalType": "uint256",
          "name": "index",
          "type": "uint256"
        }
      ],
      "name": "get4",
      "outputs": [
        {
          "internalType": "string",
          "name": "",
          "type": "string"
        }
      ],
      "stateMutability": "view",
      "type": "function",
      "constant": true
    }
  ],
  "bytecode": "0x60806040526000600155600060035560006005556000600755600060085534801561002957600080fd5b50610e6d806100396000396000f3fe608060405234801561001057600080fd5b506004361061010b5760003560e01c80637e87a2e6116100a2578063b9443c3a11610071578063b9443c3a146102ce578063c8f43d16146102fe578063ce84cf8b1461032e578063d3c83a121461034a578063ed09d19a146103665761010b565b80637e87a2e6146102485780638ac7fae51461026657806394ab6263146102825780639c117f0f1461029e5761010b565b80633eb0b9b5116100de5780633eb0b9b5146101be57806353f3f6a7146101dc578063732a556d146101fa578063736d159d146102185761010b565b806329b06d21146101105780632ddbd13a1461014057806331184dc31461015e57806331e4a39e1461018e575b600080fd5b61012a60048036038101906101259190610ad0565b610396565b6040516101379190610b96565b60405180910390f35b610148610436565b6040516101559190610bc7565b60405180910390f35b61017860048036038101906101739190610ad0565b61043c565b6040516101859190610b96565b60405180910390f35b6101a860048036038101906101a39190610ad0565b6104e1565b6040516101b59190610b96565b60405180910390f35b6101c6610586565b6040516101d39190610bc7565b60405180910390f35b6101e461058c565b6040516101f19190610bc7565b60405180910390f35b610202610592565b60405161020f9190610bc7565b60405180910390f35b610232600480360381019061022d9190610ad0565b610598565b60405161023f9190610b96565b60405180910390f35b610250610638565b60405161025d9190610bc7565b60405180910390f35b610280600480360381019061027b9190610d17565b61063e565b005b61029c60048036038101906102979190610d17565b610682565b005b6102b860048036038101906102b39190610ad0565b6106c7565b6040516102c59190610b96565b60405180910390f35b6102e860048036038101906102e39190610ad0565b61076b565b6040516102f59190610b96565b60405180910390f35b61031860048036038101906103139190610ad0565b61080b565b6040516103259190610b96565b60405180910390f35b61034860048036038101906103439190610d17565b6108ab565b005b610364600480360381019061035f9190610d17565b6108f0565b005b610380600480360381019061037b9190610ad0565b61093e565b60405161038d9190610b96565b60405180910390f35b600460205280600052604060002060009150905080546103b590610d8f565b80601f01602080910402602001604051908101604052809291908181526020018280546103e190610d8f565b801561042e5780601f106104035761010080835404028352916020019161042e565b820191906000526020600020905b81548152906001019060200180831161041157829003601f168201915b505050505081565b60085481565b606060026000838152602001908152602001600020805461045c90610d8f565b80601f016020809104026020016040519081016040528092919081815260200182805461048890610d8f565b80156104d55780601f106104aa576101008083540402835291602001916104d5565b820191906000526020600020905b8154815290600101906020018083116104b857829003601f168201915b50505050509050919050565b606060066000838152602001908152602001600020805461050190610d8f565b80601f016020809104026020016040519081016040528092919081815260200182805461052d90610d8f565b801561057a5780601f1061054f5761010080835404028352916020019161057a565b820191906000526020600020905b81548152906001019060200180831161055d57829003601f168201915b50505050509050919050565b60015481565b60055481565b60035481565b600060205280600052604060002060009150905080546105b790610d8f565b80601f01602080910402602001604051908101604052809291908181526020018280546105e390610d8f565b80156106305780601f1061060557610100808354040283529160200191610630565b820191906000526020600020905b81548152906001019060200180831161061357829003601f168201915b505050505081565b60075481565b80600080600154815260200190815260200160002090805190602001906106669291906109e3565b506001600081548092919061067a90610def565b919050555050565b8060026000600354815260200190815260200160002090805190602001906106ab9291906109e3565b50600360008154809291906106bf90610def565b919050555050565b606060008083815260200190815260200160002080546106e690610d8f565b80601f016020809104026020016040519081016040528092919081815260200182805461071290610d8f565b801561075f5780601f106107345761010080835404028352916020019161075f565b820191906000526020600020905b81548152906001019060200180831161074257829003601f168201915b50505050509050919050565b6006602052806000526040600020600091509050805461078a90610d8f565b80601f01602080910402602001604051908101604052809291908181526020018280546107b690610d8f565b80156108035780601f106107d857610100808354040283529160200191610803565b820191906000526020600020905b8154815290600101906020018083116107e657829003601f168201915b505050505081565b6002602052806000526040600020600091509050805461082a90610d8f565b80601f016020809104026020016040519081016040528092919081815260200182805461085690610d8f565b80156108a35780601f10610878576101008083540402835291602001916108a3565b820191906000526020600020905b81548152906001019060200180831161088657829003601f168201915b505050505081565b8060046000600554815260200190815260200160002090805190602001906108d49291906109e3565b50600560008154809291906108e890610def565b919050555050565b8060066000600754815260200190815260200160002090805190602001906109199291906109e3565b506007600081548092919061092d90610def565b919050555060075460088190555050565b606060046000838152602001908152602001600020805461095e90610d8f565b80601f016020809104026020016040519081016040528092919081815260200182805461098a90610d8f565b80156109d75780601f106109ac576101008083540402835291602001916109d7565b820191906000526020600020905b8154815290600101906020018083116109ba57829003601f168201915b50505050509050919050565b8280546109ef90610d8f565b90600052602060002090601f016020900481019282610a115760008555610a58565b82601f10610a2a57805160ff1916838001178555610a58565b82800160010185558215610a58579182015b82811115610a57578251825591602001919060010190610a3c565b5b509050610a659190610a69565b5090565b5b80821115610a82576000816000905550600101610a6a565b5090565b6000604051905090565b600080fd5b600080fd5b6000819050919050565b610aad81610a9a565b8114610ab857600080fd5b50565b600081359050610aca81610aa4565b92915050565b600060208284031215610ae657610ae5610a90565b5b6000610af484828501610abb565b91505092915050565b600081519050919050565b600082825260208201905092915050565b60005b83811015610b37578082015181840152602081019050610b1c565b83811115610b46576000848401525b50505050565b6000601f19601f8301169050919050565b6000610b6882610afd565b610b728185610b08565b9350610b82818560208601610b19565b610b8b81610b4c565b840191505092915050565b60006020820190508181036000830152610bb08184610b5d565b905092915050565b610bc181610a9a565b82525050565b6000602082019050610bdc6000830184610bb8565b92915050565b600080fd5b600080fd5b7f4e487b7100000000000000000000000000000000000000000000000000000000600052604160045260246000fd5b610c2482610b4c565b810181811067ffffffffffffffff82111715610c4357610c42610bec565b5b80604052505050565b6000610c56610a86565b9050610c628282610c1b565b919050565b600067ffffffffffffffff821115610c8257610c81610bec565b5b610c8b82610b4c565b9050602081019050919050565b82818337600083830152505050565b6000610cba610cb584610c67565b610c4c565b905082815260208101848484011115610cd657610cd5610be7565b5b610ce1848285610c98565b509392505050565b600082601f830112610cfe57610cfd610be2565b5b8135610d0e848260208601610ca7565b91505092915050565b600060208284031215610d2d57610d2c610a90565b5b600082013567ffffffffffffffff811115610d4b57610d4a610a95565b5b610d5784828501610ce9565b91505092915050565b7f4e487b7100000000000000000000000000000000000000000000000000000000600052602260045260246000fd5b60006002820490506001821680610da757607f821691505b602082108103610dba57610db9610d60565b5b50919050565b7f4e487b7100000000000000000000000000000000000000000000000000000000600052601160045260246000fd5b6000610dfa82610a9a565b91507fffffffffffffffffffffffffffffffffffffffffffffffffffffffffffffffff8203610e2c57610e2b610dc0565b5b60018201905091905056fea2646970667358221220504fd24fa3d55ad48b39f1421b6fec2320cfad8e2fba466c55f58b24a0e3aa0664736f6c634300080d0033",
  "immutableReferences": {},
  "source": "// SPDX-License-Identifier: MIT\npragma solidity ^0.8.13;\n\ncontract SimpleStorage {\n    mapping(uint256 => string) public data1;\n    uint256 public data1Count = 0;\n\n    mapping(uint256 => string) public data2;\n    uint256 public data2Count = 0;\n\n    mapping(uint256 => string) public data3;\n    uint256 public data3Count = 0;\n\n    mapping(uint256 => string) public data4;\n    uint256 public data4Count = 0;\n\n    uint256 public total = 0;\n\n    // \n    function set1(string memory _data) public {\n        data1[data1Count] = _data;\n        data1Count++;\n    }\n\n    // \n    function get1(uint256 index) public view returns (string memory) {\n        return data1[index];\n    }\n\n    // \n    function set2(string memory _data) public {\n        data2[data2Count] = _data;\n        data2Count++;\n    }\n\n    // \n    function get2(uint256 index) public view returns (string memory) {\n        return data2[index];\n    }\n\n \n    function set3(string memory _data) public {\n        data3[data3Count] = _data;\n        data3Count++;\n    }\n\n\n    function get3(uint256 index) public view returns (string memory) {\n        return data3[index];\n    }\n\n    function set4(string memory _data) public {\n        data4[data4Count] = _data;\n        data4Count++;\n        total = data4Count;\n    }\n\n   \n    function get4(uint256 index) public view returns (string memory) {\n        return data4[index];\n    }\n}",
  "sourcePath": "/home/osboxes/projects/d/contracts/contract.sol",
  "compiler": {
    "name": "solc",
    "version": "0.8.13+commit.abaa5c0e.Emscripten.clang"
  },
  "schemaVersion": "3.4.16",
  "updatedAt": "2024-03-18T20:49:48.187Z",
  "networkType": "ethereum",
  "devdoc": {
    "kind": "dev",
    "methods": {},
    "version": 1
  },
  "userdoc": {
    "kind": "user",
    "methods": {},
    "version": 1
  }
}